:100000000C9434000C943E000C943E000C943E0082
:100010000C943E000C943E000C943E000C943E0068
:100020000C943E000C943E000C943E000C943E0058
:100030000C943E000C943E000C943E000C943E0048
:100040000C943E000C943E000C943E000C943E0038
:100050000C943E000C943E000C943E000C943E0028
:100060000C943E000C943E0011241FBECFEFD8E04C
:10007000DEBFCDBF0E9440000C9457000C940000DE
:10008000559A99B192FB222720F993FB882780F992
:10009000982F9095392F3223922F982B9095932B50
:1000A0008223892B8295880F807E8BB9EACFF894C2
:0200B000FFCF80
:00000001FF
